HDRAA260922183DISCOS FUENTES EDIMUSICA SA                  01.102018093014220020181005
GRHNWR0000102.100000000000
NWR0000000000000000A Mover Las Caderas                                         ES00000260922183T0445282416                    UNC000000YMUS   ORI         Tony Penaredondo                        LNN000        N                                                  N
SPU000000000000000101057065674EDMUNDO ARIAS VALENCIA                        E 0000000000026092218300000000000000084000000840000008405000   00002609221830000000000000000000000000000OS
SPT0000000000000002057065674      000000000005000I0004N001
SPT0000000000000003057065674      000000000005000I0008N002
SPT0000000000000004057065674      000000000005000I0012N003
SPT0000000000000005057065674      000000000005000I0020N004
SPT0000000000000006057065674      000000000005000I0024N005
SPT0000000000000007057065674      000000000005000I0028N006
SPT0000000000000008057065674      000000000005000I0031N007
SPT0000000000000009057065674      000000000005000I0032N008
SPT0000000000000010057065674      000000000005000I0036N009
SPT0000000000000011057065674      000000000005000I0040N010
SPT0000000000000012057065674      000000000005000I0044N011
SPT0000000000000013057065674      000000000005000I0048N012
SPT0000000000000014057065674      000000000005000I0050N013
SPT0000000000000015057065674      000000000005000I0051N014
SPT0000000000000016057065674      000000000005000I0052N015
SPT0000000000000017057065674      000000000005000I0056N016
SPT0000000000000018057065674      000000000005000I0064N017
SPT0000000000000019057065674      000000000005000I0068N018
SPT0000000000000020057065674      000000000005000I0070N019
SPT0000000000000021057065674      000000000005000I0072N020
SPT0000000000000022057065674      000000000005000I0076N021
SPT0000000000000023057065674      000000000005000I0084N022
SPT0000000000000024057065674      000000000005000I0090N023
SPT0000000000000025057065674      000000000005000I0096N024
SPT0000000000000026057065674      000000000005000I0100N025
SPT0000000000000027057065674      000000000005000I0104N026
SPT0000000000000028057065674      000000000005000I0104N027
SPT0000000000000029057065674      000000000005000I0108N028
SPT0000000000000030057065674      000000000005000I0112N029
SPT0000000000000031057065674      000000000005000I0116N030
SPT0000000000000032057065674      000000000005000I0120N031
SPT0000000000000033057065674      000000000005000I0124N032
SPT0000000000000034057065674      000000000005000I0132N033
SPT0000000000000035057065674      000000000005000I0140N034
SPT0000000000000036057065674      000000000005000I0144N035
SPT0000000000000037057065674      000000000005000I0148N036
SPT0000000000000038057065674      000000000005000I0152N037
SPT0000000000000039057065674      000000000005000I0156N038
SPT0000000000000040057065674      000000000005000I0158N039
SPT0000000000000041057065674      000000000005000I0170N040
SPT0000000000000042057065674      000000000005000I0174N041
SPT0000000000000043057065674      000000000005000I0178N042
SPT0000000000000044057065674      000000000005000I0180N043
SPT0000000000000045057065674      000000000005000I0180N044
SPT0000000000000046057065674      000000000005000I0188N045
SPT0000000000000047057065674      000000000005000I0191N046
SPT0000000000000048057065674      000000000005000I0192N047
SPT0000000000000049057065674      000000000005000I0196N048
SPT0000000000000050057065674      000000000005000I0200N049
SPT0000000000000051057065674      000000000005000I0203N050
SPT0000000000000052057065674      000000000005000I0204N051
SPT0000000000000053057065674      000000000005000I0208N052
SPT0000000000000054057065674      000000000005000I0212N053
SPT0000000000000055057065674      000000000005000I0214N054
SPT0000000000000056057065674      000000000005000I0218N055
SPT0000000000000057057065674      000000000005000I0222N056
SPT0000000000000058057065674      000000000005000I0226N057
SPT0000000000000059057065674      000000000005000I0230N058
SPT0000000000000060057065674      000000000005000I0231N059
SPT0000000000000061057065674      000000000005000I0232N060
SPT0000000000000062057065674      000000000005000I0233N061
SPT0000000000000063057065674      000000000005000I0242N062
SPT0000000000000064057065674      000000000005000I0246N063
SPT0000000000000065057065674      000000000005000I0250N064
SPT0000000000000066057065674      000000000005000I0258N065
SPT0000000000000067057065674      000000000005000I0262N066
SPT0000000000000068057065674      000000000005000I0266N067
SPT0000000000000069057065674      000000000005000I0268N068
SPT0000000000000070057065674      000000000005000I0270N069
SPT0000000000000071057065674      000000000005000I0276N070
SPT0000000000000072057065674      000000000005000I0278N071
SPT0000000000000073057065674      000000000005000I0280N072
SPT0000000000000074057065674      000000000005000I0288N073
SPT0000000000000075057065674      000000000005000I0296N074
SPT0000000000000076057065674      000000000005000I0300N075
SPT0000000000000077057065674      000000000005000I0308N076
SPT0000000000000078057065674      000000000005000I0320N077
SPT0000000000000079057065674      000000000005000I0324N078
SPT0000000000000080057065674      000000000005000I0328N079
SPT0000000000000081057065674      000000000005000I0332N080
SPT0000000000000082057065674      000000000005000I0336N081
SPT0000000000000083057065674      000000000005000I0340N082
SPT0000000000000084057065674      000000000005000I0344N083
SPT0000000000000085057065674      000000000005000I0348N084
SPT0000000000000086057065674      000000000005000I0352N085
SPT0000000000000087057065674      000000000005000I0356N086
SPT0000000000000088057065674      000000000005000I0360N087
SPT0000000000000089057065674      000000000005000I0364N088
SPT0000000000000090057065674      000000000005000I0368N089
SPT0000000000000091057065674      000000000005000I0372N090
SPT0000000000000092057065674      000000000005000I0376N091
SPT0000000000000093057065674      000000000005000I0380N092
SPT0000000000000094057065674      000000000005000I0384N093
SPT0000000000000095057065674      000000000005000I0388N094
SPT0000000000000096057065674      000000000005000I0392N095
SPT0000000000000097057065674      000000000005000I0398N096
SPT0000000000000098057065674      000000000005000I0400N097
SPT0000000000000099057065674      000000000005000I0404N098
SPT0000000000000100057065674      000000000005000I0408N099
SPT0000000000000101057065674      000000000005000I0410N100
SPT0000000000000102057065674      000000000005000I0414N101
SPT0000000000000103057065674      000000000005000I0417N102
SPT0000000000000104057065674      000000000005000I0418N103
SPT0000000000000105057065674      000000000005000I0422N104
SPT0000000000000106057065674      000000000005000I0426N105
SPT0000000000000107057065674      000000000005000I0428N106
SPT0000000000000108057065674      000000000005000I0430N107
SPT0000000000000109057065674      000000000005000I0434N108
SPT0000000000000110057065674      000000000005000I0438N109
SPT0000000000000111057065674      000000000005000I0440N110
SPT0000000000000112057065674      000000000005000I0442N111
SPT0000000000000113057065674      000000000005000I0446N112
SPT0000000000000114057065674      000000000005000I0450N113
SPT0000000000000115057065674      000000000005000I0454N114
SPT0000000000000116057065674      000000000005000I0458N115
SPT0000000000000117057065674      000000000005000I0462N116
SPT0000000000000118057065674      000000000005000I0466N117
SPT0000000000000119057065674      000000000005000I0470N118
SPT0000000000000120057065674      000000000005000I0478N119
SPT0000000000000121057065674      000000000005000I0480N120
SPT0000000000000122057065674      000000000005000I0484N121
SPT0000000000000123057065674      000000000005000I0492N122
SPT0000000000000124057065674      000000000005000I0496N123
SPT0000000000000125057065674      000000000005000I0498N124
SPT0000000000000126057065674      000000000005000I0499N125
SPT0000000000000127057065674      000000000005000I0504N126
SPT0000000000000128057065674      000000000005000I0508N127
SPT0000000000000129057065674      000000000005000I0512N128
SPT0000000000000130057065674      000000000005000I0516N129
SPT0000000000000131057065674      000000000005000I0520N130
SPT0000000000000132057065674      000000000005000I0524N131
SPT0000000000000133057065674      000000000005000I0528N132
SPT0000000000000134057065674      000000000005000I0540N133
SPT0000000000000135057065674      000000000005000I0548N134
SPT0000000000000136057065674      000000000005000I0554N135
SPT0000000000000137057065674      000000000005000I0558N136
SPT0000000000000138057065674      000000000005000I0562N137
SPT0000000000000139057065674      000000000005000I0566N138
SPT0000000000000140057065674      000000000005000I0578N139
SPT0000000000000141057065674      000000000005000I0583N140
SPT0000000000000142057065674      000000000005000I0584N141
SPT0000000000000143057065674      000000000005000I0585N142
SPT0000000000000144057065674      000000000005000I0586N143
SPT0000000000000145057065674      000000000005000I0591N144
SPT0000000000000146057065674      000000000005000I0598N145
SPT0000000000000147057065674      000000000005000I0600N146
SPT0000000000000148057065674      000000000005000I0604N147
SPT0000000000000149057065674      000000000005000I0608N148
SPT0000000000000150057065674      000000000005000I0616N149
SPT0000000000000151057065674      000000000005000I0620N150
SPT0000000000000152057065674      000000000005000I0624N151
SPT0000000000000153057065674      000000000005000I0626N152
SPT0000000000000154057065674      000000000005000I0630N153
SPT0000000000000155057065674      000000000005000I0634N154
SPT0000000000000156057065674      000000000005000I0642N155
SPT0000000000000157057065674      000000000005000I0643N156
SPT0000000000000158057065674      000000000005000I0646N157
SPT0000000000000159057065674      000000000005000I0659N158
SPT0000000000000160057065674      000000000005000I0662N159
SPT0000000000000161057065674      000000000005000I0670N160
SPT0000000000000162057065674      000000000005000I0674N161
SPT0000000000000163057065674      000000000005000I0678N162
SPT0000000000000164057065674      000000000005000I0682N163
SPT0000000000000165057065674      000000000005000I0686N164
SPT0000000000000166057065674      000000000005000I0688N165
SPT0000000000000167057065674      000000000005000I0690N166
SPT0000000000000168057065674      000000000005000I0694N167
SPT0000000000000169057065674      000000000005000I0702N168
SPT0000000000000170057065674      000000000005000I0703N169
SPT0000000000000171057065674      000000000005000I0704N170
SPT0000000000000172057065674      000000000005000I0705N171
SPT0000000000000173057065674      000000000005000I0706N172
SPT0000000000000174057065674      000000000005000I0710N173
SPT0000000000000175057065674      000000000005000I0716N174
SPT0000000000000176057065674      000000000005000I0720N175
SPT0000000000000177057065674      000000000005000I0724N176
SPT0000000000000178057065674      000000000005000I0728N177
SPT0000000000000179057065674      000000000005000I0729N178
SPT0000000000000180057065674      000000000005000I0732N179
SPT0000000000000181057065674      000000000005000I0736N180
SPT0000000000000182057065674      000000000005000I0740N181
SPT0000000000000183057065674      000000000005000I0748N182
SPT0000000000000184057065674      000000000005000I0752N183
SPT0000000000000185057065674      000000000005000I0756N184
SPT0000000000000186057065674      000000000005000I0760N185
SPT0000000000000187057065674      000000000005000I0762N186
SPT0000000000000188057065674      000000000005000I0764N187
SPT0000000000000189057065674      000000000005000I0768N188
SPT0000000000000190057065674      000000000005000I0776N189
SPT0000000000000191057065674      000000000005000I0780N190
SPT0000000000000192057065674      000000000005000I0784N191
SPT0000000000000193057065674      000000000005000I0788N192
SPT0000000000000194057065674      000000000005000I0792N193
SPT0000000000000195057065674      000000000005000I0795N194
SPT0000000000000196057065674      000000000005000I0798N195
SPT0000000000000197057065674      000000000005000I0800N196
SPT0000000000000198057065674      000000000005000I0804N197
SPT0000000000000199057065674      000000000005000I0807N198
SPT0000000000000200057065674      000000000005000I0810N199
SPT0000000000000201057065674      000000000005000I0818N200
SPT0000000000000202057065674      000000000005000I0826N201
SPT0000000000000203057065674      000000000005000I0834N202
SPT0000000000000204057065674      000000000005000I0840N203
SPT0000000000000205057065674      000000000005000I0854N204
SPT0000000000000206057065674      000000000005000I0858N205
SPT0000000000000207057065674      000000000005000I0860N206
SPT0000000000000208057065674      000000000005000I0862N207
SPT0000000000000209057065674      000000000005000I0882N208
SPT0000000000000210057065674      000000000005000I0882N209
SPT0000000000000211057065674      000000000005000I0886N210
SPT0000000000000212057065674      000000000005000I0887N211
SPT0000000000000213057065674      000000000005000I0890N212
SPT0000000000000214057065674      000000000005000I0891N213
SPT0000000000000215057065674      000000000005000I0891N214
SPT0000000000000216057065674      000000000005000I0894N215
SPT0000000000000217057065674      000000000005000I2100N216
SPT0000000000000218057065674      000000000005000I2101N217
SPT0000000000000219057065674      000000000005000I2102N218
SPT0000000000000220057065674      000000000005000I2103N219
SPT0000000000000221057065674      000000000005000I2104N220
SPT0000000000000222057065674      000000000005000I2105N221
SPT0000000000000223057065674      000000000005000I2106N222
SPT0000000000000224057065674      000000000005000I2107N223
SPT0000000000000225057065674      000000000005000I2108N224
SPT0000000000000226057065674      000000000005000I2109N225
SPT0000000000000227057065674      000000000005000I2110N226
SPT0000000000000228057065674      000000000005000I2111N227
SPT0000000000000229057065674      000000000005000I2112N228
SPT0000000000000230057065674      000000000005000I2113N229
SPT0000000000000231057065674      000000000005000I2114N230
SPT0000000000000232057065674      000000000005000I2115N231
SPT0000000000000233057065674      000000000005000I2116N232
SPT0000000000000234057065674      000000000005000I2117N233
SPT0000000000000235057065674      000000000005000I2118N234
SPT0000000000000236057065674      000000000005000I2119N235
SPT0000000000000237057065674      000000000005000I2120N236
SPT0000000000000238057065674      000000000005000I2121N237
SPT0000000000000239057065674      000000000005000I2122N238
SPT0000000000000240057065674      000000000005000I2123N239
SPT0000000000000241057065674      000000000005000I2123N240
SPT0000000000000242057065674      000000000005000I2124N241
SPT0000000000000243057065674      000000000005000I2125N242
SPT0000000000000244057065674      000000000005000I2126N243
SPT0000000000000245057065674      000000000005000I2127N244
SPT0000000000000246057065674      000000000005000I2128N245
SPT0000000000000247057065674      000000000005000I2129N246
SPT0000000000000248057065674      000000000005000I2130N247
SPT0000000000000249057065674      000000000005000I2131N248
SPT0000000000000250057065674      000000000005000I2132N249
SPT0000000000000251057065674      000000000005000I2133N250
SPT0000000000000252057065674      000000000005000I2134N251
SPT0000000000000253057065674      000000000005000I2136N252
SPU000000000000025402260922183DISCOS FUENTES EDIMUSICA SA                   E 0000000000026092218300000000000000084000000840000008405000   00002609221830000000000000000000000000000OS
SPT0000000000000255260922183      000000000005000I0004N001
SPT0000000000000256260922183      000000000005000I0008N002
SPT0000000000000257260922183      000000000005000I0012N003
SPT0000000000000258260922183      000000000005000I0020N004
SPT0000000000000259260922183      000000000005000I0024N005
SPT0000000000000260260922183      000000000005000I0028N006
SPT0000000000000261260922183      000000000005000I0031N007
SPT0000000000000262260922183      000000000005000I0032N008
SPT0000000000000263260922183      000000000005000I0036N009
SPT0000000000000264260922183      000000000005000I0040N010
SPT0000000000000265260922183      000000000005000I0044N011
SPT0000000000000266260922183      000000000005000I0048N012
SPT0000000000000267260922183      000000000005000I0050N013
SPT0000000000000268260922183      000000000005000I0051N014
SPT0000000000000269260922183      000000000005000I0052N015
SPT0000000000000270260922183      000000000005000I0056N016
SPT0000000000000271260922183      000000000005000I0064N017
SPT0000000000000272260922183      000000000005000I0068N018
SPT0000000000000273260922183      000000000005000I0070N019
SPT0000000000000274260922183      000000000005000I0072N020
SPT0000000000000275260922183      000000000005000I0076N021
SPT0000000000000276260922183      000000000005000I0084N022
SPT0000000000000277260922183      000000000005000I0090N023
SPT0000000000000278260922183      000000000005000I0096N024
SPT0000000000000279260922183      000000000005000I0100N025
SPT0000000000000280260922183      000000000005000I0104N026
SPT0000000000000281260922183      000000000005000I0104N027
SPT0000000000000282260922183      000000000005000I0108N028
SPT0000000000000283260922183      000000000005000I0112N029
SPT0000000000000284260922183      000000000005000I0116N030
SPT0000000000000285260922183      000000000005000I0120N031
SPT0000000000000286260922183      000000000005000I0124N032
SPT0000000000000287260922183      000000000005000I0132N033
SPT0000000000000288260922183      000000000005000I0140N034
SPT0000000000000289260922183      000000000005000I0144N035
SPT0000000000000290260922183      000000000005000I0148N036
SPT0000000000000291260922183      000000000005000I0152N037
SPT0000000000000292260922183      000000000005000I0156N038
SPT0000000000000293260922183      000000000005000I0158N039
SPT0000000000000294260922183      000000000005000I0170N040
SPT0000000000000295260922183      000000000005000I0174N041
SPT0000000000000296260922183      000000000005000I0178N042
SPT0000000000000297260922183      000000000005000I0180N043
SPT0000000000000298260922183      000000000005000I0180N044
SPT0000000000000299260922183      000000000005000I0188N045
SPT0000000000000300260922183      000000000005000I0191N046
SPT0000000000000301260922183      000000000005000I0192N047
SPT0000000000000302260922183      000000000005000I0196N048
SPT0000000000000303260922183      000000000005000I0200N049
SPT0000000000000304260922183      000000000005000I0203N050
SPT0000000000000305260922183      000000000005000I0204N051
SPT0000000000000306260922183      000000000005000I0208N052
SPT0000000000000307260922183      000000000005000I0212N053
SPT0000000000000308260922183      000000000005000I0214N054
SPT0000000000000309260922183      000000000005000I0218N055
SPT0000000000000310260922183      000000000005000I0222N056
SPT0000000000000311260922183      000000000005000I0226N057
SPT0000000000000312260922183      000000000005000I0230N058
SPT0000000000000313260922183      000000000005000I0231N059
SPT0000000000000314260922183      000000000005000I0232N060
SPT0000000000000315260922183      000000000005000I0233N061
SPT0000000000000316260922183      000000000005000I0242N062
SPT0000000000000317260922183      000000000005000I0246N063
SPT0000000000000318260922183      000000000005000I0250N064
SPT0000000000000319260922183      000000000005000I0258N065
SPT0000000000000320260922183      000000000005000I0262N066
SPT0000000000000321260922183      000000000005000I0266N067
SPT0000000000000322260922183      000000000005000I0268N068
SPT0000000000000323260922183      000000000005000I0270N069
SPT0000000000000324260922183      000000000005000I0276N070
SPT0000000000000325260922183      000000000005000I0278N071
SPT0000000000000326260922183      000000000005000I0280N072
SPT0000000000000327260922183      000000000005000I0288N073
SPT0000000000000328260922183      000000000005000I0296N074
SPT0000000000000329260922183      000000000005000I0300N075
SPT0000000000000330260922183      000000000005000I0308N076
SPT0000000000000331260922183      000000000005000I0320N077
SPT0000000000000332260922183      000000000005000I0324N078
SPT0000000000000333260922183      000000000005000I0328N079
SPT0000000000000334260922183      000000000005000I0332N080
SPT0000000000000335260922183      000000000005000I0336N081
SPT0000000000000336260922183      000000000005000I0340N082
SPT0000000000000337260922183      000000000005000I0344N083
SPT0000000000000338260922183      000000000005000I0348N084
SPT0000000000000339260922183      000000000005000I0352N085
SPT0000000000000340260922183      000000000005000I0356N086
SPT0000000000000341260922183      000000000005000I0360N087
SPT0000000000000342260922183      000000000005000I0364N088
SPT0000000000000343260922183      000000000005000I0368N089
SPT0000000000000344260922183      000000000005000I0372N090
SPT0000000000000345260922183      000000000005000I0376N091
SPT0000000000000346260922183      000000000005000I0380N092
SPT0000000000000347260922183      000000000005000I0384N093
SPT0000000000000348260922183      000000000005000I0388N094
SPT0000000000000349260922183      000000000005000I0392N095
SPT0000000000000350260922183      000000000005000I0398N096
SPT0000000000000351260922183      000000000005000I0400N097
SPT0000000000000352260922183      000000000005000I0404N098
SPT0000000000000353260922183      000000000005000I0408N099
SPT0000000000000354260922183      000000000005000I0410N100
SPT0000000000000355260922183      000000000005000I0414N101
SPT0000000000000356260922183      000000000005000I0417N102
SPT0000000000000357260922183      000000000005000I0418N103
SPT0000000000000358260922183      000000000005000I0422N104
SPT0000000000000359260922183      000000000005000I0426N105
SPT0000000000000360260922183      000000000005000I0428N106
SPT0000000000000361260922183      000000000005000I0430N107
SPT0000000000000362260922183      000000000005000I0434N108
SPT0000000000000363260922183      000000000005000I0438N109
SPT0000000000000364260922183      000000000005000I0440N110
SPT0000000000000365260922183      000000000005000I0442N111
SPT0000000000000366260922183      000000000005000I0446N112
SPT0000000000000367260922183      000000000005000I0450N113
SPT0000000000000368260922183      000000000005000I0454N114
SPT0000000000000369260922183      000000000005000I0458N115
SPT0000000000000370260922183      000000000005000I0462N116
SPT0000000000000371260922183      000000000005000I0466N117
SPT0000000000000372260922183      000000000005000I0470N118
SPT0000000000000373260922183      000000000005000I0478N119
SPT0000000000000374260922183      000000000005000I0480N120
SPT0000000000000375260922183      000000000005000I0484N121
SPT0000000000000376260922183      000000000005000I0492N122
SPT0000000000000377260922183      000000000005000I0496N123
SPT0000000000000378260922183      000000000005000I0498N124
SPT0000000000000379260922183      000000000005000I0499N125
SPT0000000000000380260922183      000000000005000I0504N126
SPT0000000000000381260922183      000000000005000I0508N127
SPT0000000000000382260922183      000000000005000I0512N128
SPT0000000000000383260922183      000000000005000I0516N129
SPT0000000000000384260922183      000000000005000I0520N130
SPT0000000000000385260922183      000000000005000I0524N131
SPT0000000000000386260922183      000000000005000I0528N132
SPT0000000000000387260922183      000000000005000I0540N133
SPT0000000000000388260922183      000000000005000I0548N134
SPT0000000000000389260922183      000000000005000I0554N135
SPT0000000000000390260922183      000000000005000I0558N136
SPT0000000000000391260922183      000000000005000I0562N137
SPT0000000000000392260922183      000000000005000I0566N138
SPT0000000000000393260922183      000000000005000I0578N139
SPT0000000000000394260922183      000000000005000I0583N140
SPT0000000000000395260922183      000000000005000I0584N141
SPT0000000000000396260922183      000000000005000I0585N142
SPT0000000000000397260922183      000000000005000I0586N143
SPT0000000000000398260922183      000000000005000I0591N144
SPT0000000000000399260922183      000000000005000I0598N145
SPT0000000000000400260922183      000000000005000I0600N146
SPT0000000000000401260922183      000000000005000I0604N147
SPT0000000000000402260922183      000000000005000I0608N148
SPT0000000000000403260922183      000000000005000I0616N149
SPT0000000000000404260922183      000000000005000I0620N150
SPT0000000000000405260922183      000000000005000I0624N151
SPT0000000000000406260922183      000000000005000I0626N152
SPT0000000000000407260922183      000000000005000I0630N153
SPT0000000000000408260922183      000000000005000I0634N154
SPT0000000000000409260922183      000000000005000I0642N155
SPT0000000000000410260922183      000000000005000I0643N156
SPT0000000000000411260922183      000000000005000I0646N157
SPT0000000000000412260922183      000000000005000I0659N158
SPT0000000000000413260922183      000000000005000I0662N159
SPT0000000000000414260922183      000000000005000I0670N160
SPT0000000000000415260922183      000000000005000I0674N161
SPT0000000000000416260922183      000000000005000I0678N162
SPT0000000000000417260922183      000000000005000I0682N163
SPT0000000000000418260922183      000000000005000I0686N164
SPT0000000000000419260922183      000000000005000I0688N165
SPT0000000000000420260922183      000000000005000I0690N166
SPT0000000000000421260922183      000000000005000I0694N167
SPT0000000000000422260922183      000000000005000I0702N168
SPT0000000000000423260922183      000000000005000I0703N169
SPT0000000000000424260922183      000000000005000I0704N170
SPT0000000000000425260922183      000000000005000I0705N171
SPT0000000000000426260922183      000000000005000I0706N172
SPT0000000000000427260922183      000000000005000I0710N173
SPT0000000000000428260922183      000000000005000I0716N174
SPT0000000000000429260922183      000000000005000I0720N175
SPT0000000000000430260922183      000000000005000I0724N176
SPT0000000000000431260922183      000000000005000I0728N177
SPT0000000000000432260922183      000000000005000I0729N178
SPT0000000000000433260922183      000000000005000I0732N179
SPT0000000000000434260922183      000000000005000I0736N180
SPT0000000000000435260922183      000000000005000I0740N181
SPT0000000000000436260922183      000000000005000I0748N182
SPT0000000000000437260922183      000000000005000I0752N183
SPT0000000000000438260922183      000000000005000I0756N184
SPT0000000000000439260922183      000000000005000I0760N185
SPT0000000000000440260922183      000000000005000I0762N186
SPT0000000000000441260922183      000000000005000I0764N187
SPT0000000000000442260922183      000000000005000I0768N188
SPT0000000000000443260922183      000000000005000I0776N189
SPT0000000000000444260922183      000000000005000I0780N190
SPT0000000000000445260922183      000000000005000I0784N191
SPT0000000000000446260922183      000000000005000I0788N192
SPT0000000000000447260922183      000000000005000I0792N193
SPT0000000000000448260922183      000000000005000I0795N194
SPT0000000000000449260922183      000000000005000I0798N195
SPT0000000000000450260922183      000000000005000I0800N196
SPT0000000000000451260922183      000000000005000I0804N197
SPT0000000000000452260922183      000000000005000I0807N198
SPT0000000000000453260922183      000000000005000I0810N199
SPT0000000000000454260922183      000000000005000I0818N200
SPT0000000000000455260922183      000000000005000I0826N201
SPT0000000000000456260922183      000000000005000I0834N202
SPT0000000000000457260922183      000000000005000I0840N203
SPT0000000000000458260922183      000000000005000I0854N204
SPT0000000000000459260922183      000000000005000I0858N205
SPT0000000000000460260922183      000000000005000I0860N206
SPT0000000000000461260922183      000000000005000I0862N207
SPT0000000000000462260922183      000000000005000I0882N208
SPT0000000000000463260922183      000000000005000I0882N209
SPT0000000000000464260922183      000000000005000I0886N210
SPT0000000000000465260922183      000000000005000I0887N211
SPT0000000000000466260922183      000000000005000I0890N212
SPT0000000000000467260922183      000000000005000I0891N213
SPT0000000000000468260922183      000000000005000I0891N214
SPT0000000000000469260922183      000000000005000I0894N215
SPT0000000000000470260922183      000000000005000I2100N216
SPT0000000000000471260922183      000000000005000I2101N217
SPT0000000000000472260922183      000000000005000I2102N218
SPT0000000000000473260922183      000000000005000I2103N219
SPT0000000000000474260922183      000000000005000I2104N220
SPT0000000000000475260922183      000000000005000I2105N221
SPT0000000000000476260922183      000000000005000I2106N222
SPT0000000000000477260922183      000000000005000I2107N223
SPT0000000000000478260922183      000000000005000I2108N224
SPT0000000000000479260922183      000000000005000I2109N225
SPT0000000000000480260922183      000000000005000I2110N226
SPT0000000000000481260922183      000000000005000I2111N227
SPT0000000000000482260922183      000000000005000I2112N228
SPT0000000000000483260922183      000000000005000I2113N229
SPT0000000000000484260922183      000000000005000I2114N230
SPT0000000000000485260922183      000000000005000I2115N231
SPT0000000000000486260922183      000000000005000I2116N232
SPT0000000000000487260922183      000000000005000I2117N233
SPT0000000000000488260922183      000000000005000I2118N234
SPT0000000000000489260922183      000000000005000I2119N235
SPT0000000000000490260922183      000000000005000I2120N236
SPT0000000000000491260922183      000000000005000I2121N237
SPT0000000000000492260922183      000000000005000I2122N238
SPT0000000000000493260922183      000000000005000I2123N239
SPT0000000000000494260922183      000000000005000I2123N240
SPT0000000000000495260922183      000000000005000I2124N241
SPT0000000000000496260922183      000000000005000I2125N242
SPT0000000000000497260922183      000000000005000I2126N243
SPT0000000000000498260922183      000000000005000I2127N244
SPT0000000000000499260922183      000000000005000I2128N245
SPT0000000000000500260922183      000000000005000I2129N246
SPT0000000000000501260922183      000000000005000I2130N247
SPT0000000000000502260922183      000000000005000I2131N248
SPT0000000000000503260922183      000000000005000I2132N249
SPT0000000000000504260922183      000000000005000I2133N250
SPT0000000000000505260922183      000000000005000I2134N251
SPT0000000000000506260922183      000000000005000I2136N252
SWR0000000000000507057065674ARIAS VALENCIA                               EDMUNDO                       NA          00057065674084000000840000008405000 NN 0000057065674000000000000
PWR0000000000000508260922183DISCOS FUENTES EDIMUSICA SA                                              057065674
SWT0000000000000001260922183000000000005000I0001N001
SWT0000000000000002260922183000000000005000I0002N002
SWT0000000000000003260922183000000000005000I0003N003
SWT0000000000000004260922183000000000005000I0004N004
SWT0000000000000005260922183000000000005000I0005N005
SWT0000000000000006260922183000000000005000I0006N006
SWT0000000000000007260922183000000000005000I0007N007
SWT0000000000000008260922183000000000005000I0008N008
SWT0000000000000009260922183000000000005000I0009N009
SWT0000000000000010260922183000000000005000I0010N010
SWT0000000000000011260922183000000000005000I0011N011
SWT0000000000000012260922183000000000005000I0012N012
SWT0000000000000013260922183000000000005000I0013N013
SWT0000000000000014260922183000000000005000I0014N014
SWT0000000000000015260922183000000000005000I0015N015
SWT0000000000000016260922183000000000005000I0016N016
SWT0000000000000017260922183000000000005000I0017N017
SWT0000000000000018260922183000000000005000I0018N018
SWT0000000000000019260922183000000000005000I0019N019
SWT0000000000000020260922183000000000005000I0020N020
SWT0000000000000021260922183000000000005000I0021N021
SWT0000000000000022260922183000000000005000I0022N022
SWT0000000000000023260922183000000000005000I0023N023
SWT0000000000000024260922183000000000005000I0024N024
SWT0000000000000025260922183000000000005000I0025N025
SWT0000000000000026260922183000000000005000I0026N026
SWT0000000000000027260922183000000000005000I0027N027
SWT0000000000000028260922183000000000005000I0028N028
SWT0000000000000029260922183000000000005000I0029N029
SWT0000000000000030260922183000000000005000I0030N030
SWT0000000000000031260922183000000000005000I0031N031
SWT0000000000000032260922183000000000005000I0032N032
SWT0000000000000033260922183000000000005000I0033N033
SWT0000000000000034260922183000000000005000I0034N034
SWT0000000000000035260922183000000000005000I0035N035
SWT0000000000000036260922183000000000005000I0036N036
SWT0000000000000037260922183000000000005000I0037N037
SWT0000000000000038260922183000000000005000I0038N038
SWT0000000000000039260922183000000000005000I0039N039
SWT0000000000000040260922183000000000005000I0040N040
SWT0000000000000041260922183000000000005000I0041N041
SWT0000000000000042260922183000000000005000I0042N042
SWT0000000000000043260922183000000000005000I0043N043
SWT0000000000000044260922183000000000005000I0044N044
SWT0000000000000045260922183000000000005000I0045N045
SWT0000000000000046260922183000000000005000I0046N046
SWT0000000000000047260922183000000000005000I0047N047
SWT0000000000000048260922183000000000005000I0048N048
SWT0000000000000049260922183000000000005000I0049N049
SWT0000000000000050260922183000000000005000I0050N050
SWT0000000000000051260922183000000000005000I0051N051
SWT0000000000000052260922183000000000005000I0052N052
SWT0000000000000053260922183000000000005000I0053N053
SWT0000000000000054260922183000000000005000I0054N054
SWT0000000000000055260922183000000000005000I0055N055
SWT0000000000000056260922183000000000005000I0056N056
SWT0000000000000057260922183000000000005000I0057N057
SWT0000000000000058260922183000000000005000I0058N058
SWT0000000000000059260922183000000000005000I0059N059
SWT0000000000000060260922183000000000005000I0060N060
SWT0000000000000061260922183000000000005000I0061N061
SWT0000000000000062260922183000000000005000I0062N062
SWT0000000000000063260922183000000000005000I0063N063
SWT0000000000000064260922183000000000005000I0064N064
SWT0000000000000065260922183000000000005000I0065N065
SWT0000000000000066260922183000000000005000I0066N066
SWT0000000000000067260922183000000000005000I0067N067
SWT0000000000000068260922183000000000005000I0068N068
SWT0000000000000069260922183000000000005000I0069N069
SWT0000000000000070260922183000000000005000I0070N070
SWT0000000000000071260922183000000000005000I0071N071
SWT0000000000000072260922183000000000005000I0072N072
SWT0000000000000073260922183000000000005000I0073N073
SWT0000000000000074260922183000000000005000I0074N074
SWT0000000000000075260922183000000000005000I0075N075
SWT0000000000000076260922183000000000005000I0076N076
SWT0000000000000077260922183000000000005000I0077N077
SWT0000000000000078260922183000000000005000I0078N078
SWT0000000000000079260922183000000000005000I0079N079
SWT0000000000000080260922183000000000005000I0080N080
SWT0000000000000081260922183000000000005000I0081N081
SWT0000000000000082260922183000000000005000I0082N082
SWT0000000000000083260922183000000000005000I0083N083
SWT0000000000000084260922183000000000005000I0084N084
SWT0000000000000085260922183000000000005000I0085N085
SWT0000000000000086260922183000000000005000I0086N086
SWT0000000000000087260922183000000000005000I0087N087
SWT0000000000000088260922183000000000005000I0088N088
SWT0000000000000089260922183000000000005000I0089N089
SWT0000000000000090260922183000000000005000I0090N090
SWT0000000000000091260922183000000000005000I0091N091
SWT0000000000000092260922183000000000005000I0092N092
SWT0000000000000093260922183000000000005000I0093N093
SWT0000000000000094260922183000000000005000I0094N094
SWT0000000000000095260922183000000000005000I0095N095
SWT0000000000000096260922183000000000005000I0096N096
SWT0000000000000097260922183000000000005000I0097N097
SWT0000000000000098260922183000000000005000I0098N098
SWT0000000000000099260922183000000000005000I0099N099
SWT0000000000000100260922183000000000005000I0100N100
SWT0000000000000101260922183000000000005000I0101N101
SWT0000000000000102260922183000000000005000I0102N102
SWT0000000000000103260922183000000000005000I0103N103
SWT0000000000000104260922183000000000005000I0104N104
SWT0000000000000105260922183000000000005000I0105N105
SWT0000000000000106260922183000000000005000I0106N106
SWT0000000000000107260922183000000000005000I0107N107
SWT0000000000000108260922183000000000005000I0108N108
SWT0000000000000109260922183000000000005000I0109N109
SWT0000000000000110260922183000000000005000I0110N110
SWT0000000000000111260922183000000000005000I0111N111
SWT0000000000000112260922183000000000005000I0112N112
SWT0000000000000113260922183000000000005000I0113N113
SWT0000000000000114260922183000000000005000I0114N114
SWT0000000000000115260922183000000000005000I0115N115
SWT0000000000000116260922183000000000005000I0116N116
SWT0000000000000117260922183000000000005000I0117N117
SWT0000000000000118260922183000000000005000I0118N118
SWT0000000000000119260922183000000000005000I0119N119
SWT0000000000000120260922183000000000005000I0120N120
SWT0000000000000121260922183000000000005000I0121N121
SWT0000000000000122260922183000000000005000I0122N122
SWT0000000000000123260922183000000000005000I0123N123
SWT0000000000000124260922183000000000005000I0124N124
SWT0000000000000125260922183000000000005000I0125N125
SWT0000000000000126260922183000000000005000I0126N126
SWT0000000000000127260922183000000000005000I0127N127
SWT0000000000000128260922183000000000005000I0128N128
SWT0000000000000129260922183000000000005000I0129N129
SWT0000000000000130260922183000000000005000I0130N130
SWT0000000000000131260922183000000000005000I0131N131
SWT0000000000000132260922183000000000005000I0132N132
SWT0000000000000133260922183000000000005000I0133N133
SWT0000000000000134260922183000000000005000I0134N134
SWT0000000000000135260922183000000000005000I0135N135
SWT0000000000000136260922183000000000005000I0136N136
SWT0000000000000137260922183000000000005000I0137N137
SWT0000000000000138260922183000000000005000I0138N138
SWT0000000000000139260922183000000000005000I0139N139
SWT0000000000000140260922183000000000005000I0140N140
SWT0000000000000141260922183000000000005000I0141N141
SWT0000000000000142260922183000000000005000I0142N142
SWT0000000000000143260922183000000000005000I0143N143
SWT0000000000000144260922183000000000005000I0144N144
SWT0000000000000145260922183000000000005000I0145N145
SWT0000000000000146260922183000000000005000I0146N146
SWT0000000000000147260922183000000000005000I0147N147
SWT0000000000000148260922183000000000005000I0148N148
SWT0000000000000149260922183000000000005000I0149N149
SWT0000000000000150260922183000000000005000I0150N150
SWT0000000000000151260922183000000000005000I0151N151
SWT0000000000000152260922183000000000005000I0152N152
SWT0000000000000153260922183000000000005000I0153N153
SWT0000000000000154260922183000000000005000I0154N154
SWT0000000000000155260922183000000000005000I0155N155
SWT0000000000000156260922183000000000005000I0156N156
SWT0000000000000157260922183000000000005000I0157N157
SWT0000000000000158260922183000000000005000I0158N158
SWT0000000000000159260922183000000000005000I0159N159
SWT0000000000000160260922183000000000005000I0160N160
SWT0000000000000161260922183000000000005000I0161N161
SWT0000000000000162260922183000000000005000I0162N162
SWT0000000000000163260922183000000000005000I0163N163
SWT0000000000000164260922183000000000005000I0164N164
SWT0000000000000165260922183000000000005000I0165N165
SWT0000000000000166260922183000000000005000I0166N166
SWT0000000000000167260922183000000000005000I0167N167
SWT0000000000000168260922183000000000005000I0168N168
SWT0000000000000169260922183000000000005000I0169N169
SWT0000000000000170260922183000000000005000I0170N170
SWT0000000000000171260922183000000000005000I0171N171
SWT0000000000000172260922183000000000005000I0172N172
SWT0000000000000173260922183000000000005000I0173N173
SWT0000000000000174260922183000000000005000I0174N174
SWT0000000000000175260922183000000000005000I0175N175
SWT0000000000000176260922183000000000005000I0176N176
SWT0000000000000177260922183000000000005000I0177N177
SWT0000000000000178260922183000000000005000I0178N178
SWT0000000000000179260922183000000000005000I0179N179
SWT0000000000000180260922183000000000005000I0180N180
SWT0000000000000181260922183000000000005000I0181N181
SWT0000000000000182260922183000000000005000I0182N182
SWT0000000000000183260922183000000000005000I0183N183
SWT0000000000000184260922183000000000005000I0184N184
SWT0000000000000185260922183000000000005000I0185N185
SWT0000000000000186260922183000000000005000I0186N186
SWT0000000000000187260922183000000000005000I0187N187
SWT0000000000000188260922183000000000005000I0188N188
SWT0000000000000189260922183000000000005000I0189N189
SWT0000000000000190260922183000000000005000I0190N190
SWT0000000000000191260922183000000000005000I0191N191
SWT0000000000000192260922183000000000005000I0192N192
SWT0000000000000193260922183000000000005000I0193N193
SWT0000000000000194260922183000000000005000I0194N194
SWT0000000000000195260922183000000000005000I0195N195
SWT0000000000000196260922183000000000005000I0196N196
SWT0000000000000197260922183000000000005000I0197N197
SWT0000000000000198260922183000000000005000I0198N198
SWT0000000000000199260922183000000000005000I0199N199
SWT0000000000000200260922183000000000005000I0200N200
SWT0000000000000201260922183000000000005000I0201N201
SWT0000000000000202260922183000000000005000I0202N202
SWT0000000000000203260922183000000000005000I0203N203
SWT0000000000000204260922183000000000005000I0204N204
SWT0000000000000205260922183000000000005000I0205N205
SWT0000000000000206260922183000000000005000I0206N206
SWT0000000000000207260922183000000000005000I0207N207
SWT0000000000000208260922183000000000005000I0208N208
SWT0000000000000209260922183000000000005000I0209N209
SWT0000000000000210260922183000000000005000I0210N210
SWT0000000000000211260922183000000000005000I0211N211
SWT0000000000000212260922183000000000005000I0212N212
SWT0000000000000213260922183000000000005000I0213N213
SWT0000000000000214260922183000000000005000I0214N214
SWT0000000000000215260922183000000000005000I0215N215
SWT0000000000000216260922183000000000005000I0216N216
SWT0000000000000217260922183000000000005000I0217N217
SWT0000000000000218260922183000000000005000I0218N218
SWT0000000000000219260922183000000000005000I0219N219
SWT0000000000000220260922183000000000005000I0220N220
SWT0000000000000221260922183000000000005000I0221N221
SWT0000000000000222260922183000000000005000I0222N222
SWT0000000000000223260922183000000000005000I0223N223
SWT0000000000000224260922183000000000005000I0224N224
SWT0000000000000225260922183000000000005000I0225N225
SWT0000000000000226260922183000000000005000I0226N226
SWT0000000000000227260922183000000000005000I0227N227
SWT0000000000000228260922183000000000005000I0228N228
SWT0000000000000229260922183000000000005000I0229N229
SWT0000000000000230260922183000000000005000I0230N230
SWT0000000000000231260922183000000000005000I0231N231
SWT0000000000000232260922183000000000005000I0232N232
SWT0000000000000233260922183000000000005000I0233N233
SWT0000000000000234260922183000000000005000I0234N234
SWT0000000000000235260922183000000000005000I0235N235
SWT0000000000000236260922183000000000005000I0236N236
SWT0000000000000237260922183000000000005000I0237N237
SWT0000000000000238260922183000000000005000I0238N238
SWT0000000000000239260922183000000000005000I0239N239
SWT0000000000000240260922183000000000005000I0240N240
SWT0000000000000241260922183000000000005000I0241N241
SWT0000000000000242260922183000000000005000I0242N242
SWT0000000000000243260922183000000000005000I0243N243
SWT0000000000000244260922183000000000005000I0244N244
SWT0000000000000245260922183000000000005000I0245N245
SWT0000000000000246260922183000000000005000I0246N246
SWT0000000000000247260922183000000000005000I0247N247
SWT0000000000000248260922183000000000005000I0248N248
SWT0000000000000249260922183000000000005000I0249N249
SWT0000000000000250260922183000000000005000I0250N250
SWT0000000000000251260922183000000000005000I0251N251
SWT0000000000000252260922183000000000005000I0252N252

GRT00001G######GT######T
GRHAGR0000202.100000000000
AGR000000000000000000000260922183              OS20180930                A        N        2018093000001SNN
TER0000000000000001I0004
IPA0000000000000002AS                        260922183DISCOS FUENTES EDIMUSICA SA                  DISCOS FUENTES                084000000840000008405000
IPA0000000000000003AC                        057065674ARIAS VALENCIA EDMUNDO                                                     084000000840000008405000
AGR000000010000000000000260922183              OS20180930                A        N        2018093000001SNN
TER0000000100000001I0008
IPA0000000100000002AS                        260922183DISCOS FUENTES EDIMUSICA SA                  DISCOS FUENTES                084000000840000008405000
IPA0000000100000003AC                        057065674ARIAS VALENCIA EDMUNDO                                                     084000000840000008405000
AGR000000020000000000000260922183              OS20180930                A        N        2018093000001SNN
TER0000000200000001I0012
IPA0000000200000002AS                        260922183DISCOS FUENTES EDIMUSICA SA                  DISCOS FUENTES                084000000840000008405000
IPA0000000200000003AC                        057065674ARIAS VALENCIA EDMUNDO                                                     084000000840000008405000
AGR000000030000000000000260922183              OS20180930                A        N        2018093000001SNN
TER0000000300000001I0020
IPA0000000300000002AS                        260922183DISCOS FUENTES EDIMUSICA SA                  DISCOS FUENTES                084000000840000008405000
IPA0000000300000003AC                        057065674ARIAS VALENCIA EDMUNDO                                                     084000000840000008405000
AGR000000040000000000000260922183              OS20180930                A        N        2018093000001SNN
TER0000000400000001I0024
IPA0000000400000002AS                        260922183DISCOS FUENTES EDIMUSICA SA                  DISCOS FUENTES                084000000840000008405000
IPA0000000400000003AC                        057065674ARIAS VALENCIA EDMUNDO                                                     084000000840000008405000
AGR000000050000000000000260922183              OS20180930                A        N        2018093000001SNN
TER0000000500000001I0028
IPA0000000500000002AS                        260922183DISCOS FUENTES EDIMUSICA SA                  DISCOS FUENTES                084000000840000008405000
IPA0000000500000003AC                        057065674ARIAS VALENCIA EDMUNDO                                                     084000000840000008405000
AGR000000060000000000000260922183              OS20180930                A        N        2018093000001SNN
TER0000000600000001I0031
IPA0000000600000002AS                        260922183DISCOS FUENTES EDIMUSICA SA                  DISCOS FUENTES                084000000840000008405000
IPA0000000600000003AC                        057065674ARIAS VALENCIA EDMUNDO                                                     084000000840000008405000
AGR000000070000000000000260922183              OS20180930                A        N        2018093000001SNN
TER0000000700000001I0032
IPA0000000700000002AS                        260922183DISCOS FUENTES EDIMUSICA SA                  DISCOS FUENTES                084000000840000008405000
IPA0000000700000003AC                        057065674ARIAS VALENCIA EDMUNDO                                                     084000000840000008405000
AGR000000080000000000000260922183              OS20180930                A        N        2018093000001SNN
TER0000000800000001I0036
IPA0000000800000002AS                        260922183DISCOS FUENTES EDIMUSICA SA                  DISCOS FUENTES                084000000840000008405000
IPA0000000800000003AC                        057065674ARIAS VALENCIA EDMUNDO                                                     084000000840000008405000
AGR000000090000000000000260922183              OS20180930                A        N        2018093000001SNN
TER0000000900000001I0040
IPA0000000900000002AS                        260922183DISCOS FUENTES EDIMUSICA SA                  DISCOS FUENTES                084000000840000008405000
IPA0000000900000003AC                        057065674ARIAS VALENCIA EDMUNDO                                                     084000000840000008405000
AGR000000100000000000000260922183              OS20180930                A        N        2018093000001SNN
TER0000001000000001I0044
IPA0000001000000002AS                        260922183DISCOS FUENTES EDIMUSICA SA                  DISCOS FUENTES                084000000840000008405000
IPA0000001000000003AC                        057065674ARIAS VALENCIA EDMUNDO                                                     084000000840000008405000
AGR000000110000000000000260922183              OS20180930                A        N        2018093000001SNN
TER0000001100000001I0048
IPA0000001100000002AS                        260922183DISCOS FUENTES EDIMUSICA SA                  DISCOS FUENTES                084000000840000008405000
IPA0000001100000003AC                        057065674ARIAS VALENCIA EDMUNDO                                                     084000000840000008405000
AGR000000120000000000000260922183              OS20180930                A        N        2018093000001SNN
TER0000001200000001I0050
IPA0000001200000002AS                        260922183DISCOS FUENTES EDIMUSICA SA                  DISCOS FUENTES                084000000840000008405000
IPA0000001200000003AC                        057065674ARIAS VALENCIA EDMUNDO                                                     084000000840000008405000
AGR000000130000000000000260922183              OS20180930                A        N        2018093000001SNN
TER0000001300000001I0051
IPA0000001300000002AS                        260922183DISCOS FUENTES EDIMUSICA SA                  DISCOS FUENTES                084000000840000008405000
IPA0000001300000003AC                        057065674ARIAS VALENCIA EDMUNDO                                                     084000000840000008405000
AGR000000140000000000000260922183              OS20180930                A        N        2018093000001SNN
TER0000001400000001I0052
IPA0000001400000002AS                        260922183DISCOS FUENTES EDIMUSICA SA                  DISCOS FUENTES                084000000840000008405000
IPA0000001400000003AC                        057065674ARIAS VALENCIA EDMUNDO                                                     084000000840000008405000
AGR000000150000000000000260922183              OS20180930                A        N        2018093000001SNN
TER0000001500000001I0056
IPA0000001500000002AS                        260922183DISCOS FUENTES EDIMUSICA SA                  DISCOS FUENTES                084000000840000008405000
IPA0000001500000003AC                        057065674ARIAS VALENCIA EDMUNDO                                                     084000000840000008405000
AGR000000160000000000000260922183              OS20180930                A        N        2018093000001SNN
TER0000001600000001I0064
IPA0000001600000002AS                        260922183DISCOS FUENTES EDIMUSICA SA                  DISCOS FUENTES                084000000840000008405000
IPA0000001600000003AC                        057065674ARIAS VALENCIA EDMUNDO                                                     084000000840000008405000
AGR000000170000000000000260922183              OS20180930                A        N        2018093000001SNN
TER0000001700000001I0068
IPA0000001700000002AS                        260922183DISCOS FUENTES EDIMUSICA SA                  DISCOS FUENTES                084000000840000008405000
IPA0000001700000003AC                        057065674ARIAS VALENCIA EDMUNDO                                                     084000000840000008405000
AGR000000180000000000000260922183              OS20180930                A        N        2018093000001SNN
TER0000001800000001I0070
IPA0000001800000002AS                        260922183DISCOS FUENTES EDIMUSICA SA                  DISCOS FUENTES                084000000840000008405000
IPA0000001800000003AC                        057065674ARIAS VALENCIA EDMUNDO                                                     084000000840000008405000
AGR000000190000000000000260922183              OS20180930                A        N        2018093000001SNN
TER0000001900000001I0072
IPA0000001900000002AS                        260922183DISCOS FUENTES EDIMUSICA SA                  DISCOS FUENTES                084000000840000008405000
IPA0000001900000003AC                        057065674ARIAS VALENCIA EDMUNDO                                                     084000000840000008405000
AGR000000200000000000000260922183              OS20180930                A        N        2018093000001SNN
TER0000002000000001I0076
IPA0000002000000002AS                        260922183DISCOS FUENTES EDIMUSICA SA                  DISCOS FUENTES                084000000840000008405000
IPA0000002000000003AC                        057065674ARIAS VALENCIA EDMUNDO                                                     084000000840000008405000
AGR000000210000000000000260922183              OS20180930                A        N        2018093000001SNN
TER0000002100000001I0084
IPA0000002100000002AS                        260922183DISCOS FUENTES EDIMUSICA SA                  DISCOS FUENTES                084000000840000008405000
IPA0000002100000003AC                        057065674ARIAS VALENCIA EDMUNDO                                                     084000000840000008405000
AGR000000220000000000000260922183              OS20180930                A        N        2018093000001SNN
TER0000002200000001I0090
IPA0000002200000002AS                        260922183DISCOS FUENTES EDIMUSICA SA                  DISCOS FUENTES                084000000840000008405000
IPA0000002200000003AC                        057065674ARIAS VALENCIA EDMUNDO                                                     084000000840000008405000
AGR000000230000000000000260922183              OS20180930                A        N        2018093000001SNN
TER0000002300000001I0096
IPA0000002300000002AS                        260922183DISCOS FUENTES EDIMUSICA SA                  DISCOS FUENTES                084000000840000008405000
IPA0000002300000003AC                        057065674ARIAS VALENCIA EDMUNDO                                                     084000000840000008405000
AGR000000240000000000000260922183              OS20180930                A        N        2018093000001SNN
TER0000002400000001I0100
IPA0000002400000002AS                        260922183DISCOS FUENTES EDIMUSICA SA                  DISCOS FUENTES                084000000840000008405000
IPA0000002400000003AC                        057065674ARIAS VALENCIA EDMUNDO                                                     084000000840000008405000
AGR000000250000000000000260922183              OS20180930                A        N        2018093000001SNN
TER0000002500000001I0104
IPA0000002500000002AS                        260922183DISCOS FUENTES EDIMUSICA SA                  DISCOS FUENTES                084000000840000008405000
IPA0000002500000003AC                        057065674ARIAS VALENCIA EDMUNDO                                                     084000000840000008405000
AGR000000260000000000000260922183              OS20180930                A        N        2018093000001SNN
TER0000002600000001I0104
IPA0000002600000002AS                        260922183DISCOS FUENTES EDIMUSICA SA                  DISCOS FUENTES                084000000840000008405000
IPA0000002600000003AC                        057065674ARIAS VALENCIA EDMUNDO                                                     084000000840000008405000
AGR000000270000000000000260922183              OS20180930                A        N        2018093000001SNN
TER0000002700000001I0108
IPA0000002700000002AS                        260922183DISCOS FUENTES EDIMUSICA SA                  DISCOS FUENTES                084000000840000008405000
IPA0000002700000003AC                        057065674ARIAS VALENCIA EDMUNDO                                                     084000000840000008405000
AGR000000280000000000000260922183              OS20180930                A        N        2018093000001SNN
TER0000002800000001I0112
IPA0000002800000002AS                        260922183DISCOS FUENTES EDIMUSICA SA                  DISCOS FUENTES                084000000840000008405000
IPA0000002800000003AC                        057065674ARIAS VALENCIA EDMUNDO                                                     084000000840000008405000
AGR000000290000000000000260922183              OS20180930                A        N        2018093000001SNN
TER0000002900000001I0116
IPA0000002900000002AS                        260922183DISCOS FUENTES EDIMUSICA SA                  DISCOS FUENTES                084000000840000008405000
IPA0000002900000003AC                        057065674ARIAS VALENCIA EDMUNDO                                                     084000000840000008405000
AGR000000300000000000000260922183              OS20180930                A        N        2018093000001SNN
TER0000003000000001I0120
IPA0000003000000002AS                        260922183DISCOS FUENTES EDIMUSICA SA                  DISCOS FUENTES                084000000840000008405000
IPA0000003000000003AC                        057065674ARIAS VALENCIA EDMUNDO                                                     084000000840000008405000
AGR000000310000000000000260922183              OS20180930                A        N        2018093000001SNN
TER0000003100000001I0124
IPA0000003100000002AS                        260922183DISCOS FUENTES EDIMUSICA SA                  DISCOS FUENTES                084000000840000008405000
IPA0000003100000003AC                        057065674ARIAS VALENCIA EDMUNDO                                                     084000000840000008405000
AGR000000320000000000000260922183              OS20180930                A        N        2018093000001SNN
TER0000003200000001I0132
IPA0000003200000002AS                        260922183DISCOS FUENTES EDIMUSICA SA                  DISCOS FUENTES                084000000840000008405000
IPA0000003200000003AC                        057065674ARIAS VALENCIA EDMUNDO                                                     084000000840000008405000
AGR000000330000000000000260922183              OS20180930                A        N        2018093000001SNN
TER0000003300000001I0140
IPA0000003300000002AS                        260922183DISCOS FUENTES EDIMUSICA SA                  DISCOS FUENTES                084000000840000008405000
IPA0000003300000003AC                        057065674ARIAS VALENCIA EDMUNDO                                                     084000000840000008405000
AGR000000340000000000000260922183              OS20180930                A        N        2018093000001SNN
TER0000003400000001I0144
IPA0000003400000002AS                        260922183DISCOS FUENTES EDIMUSICA SA                  DISCOS FUENTES                084000000840000008405000
IPA0000003400000003AC                        057065674ARIAS VALENCIA EDMUNDO                                                     084000000840000008405000
AGR000000350000000000000260922183              OS20180930                A        N        2018093000001SNN
TER0000003500000001I0148
IPA0000003500000002AS                        260922183DISCOS FUENTES EDIMUSICA SA                  DISCOS FUENTES                084000000840000008405000
IPA0000003500000003AC                        057065674ARIAS VALENCIA EDMUNDO                                                     084000000840000008405000
AGR000000360000000000000260922183              OS20180930                A        N        2018093000001SNN
TER0000003600000001I0152
IPA0000003600000002AS                        260922183DISCOS FUENTES EDIMUSICA SA                  DISCOS FUENTES                084000000840000008405000
IPA0000003600000003AC                        057065674ARIAS VALENCIA EDMUNDO                                                     084000000840000008405000
AGR000000370000000000000260922183              OS20180930                A        N        2018093000001SNN
TER0000003700000001I0156
IPA0000003700000002AS                        260922183DISCOS FUENTES EDIMUSICA SA                  DISCOS FUENTES                084000000840000008405000
IPA0000003700000003AC                        057065674ARIAS VALENCIA EDMUNDO                                                     084000000840000008405000
AGR000000380000000000000260922183              OS20180930                A        N        2018093000001SNN
TER0000003800000001I0158
IPA0000003800000002AS                        260922183DISCOS FUENTES EDIMUSICA SA                  DISCOS FUENTES                084000000840000008405000
IPA0000003800000003AC                        057065674ARIAS VALENCIA EDMUNDO                                                     084000000840000008405000
AGR000000390000000000000260922183              OS20180930                A        N        2018093000001SNN
TER0000003900000001I0170
IPA0000003900000002AS                        260922183DISCOS FUENTES EDIMUSICA SA                  DISCOS FUENTES                084000000840000008405000
IPA0000003900000003AC                        057065674ARIAS VALENCIA EDMUNDO                                                     084000000840000008405000
AGR000000400000000000000260922183              OS20180930                A        N        2018093000001SNN
TER0000004000000001I0174
IPA0000004000000002AS                        260922183DISCOS FUENTES EDIMUSICA SA                  DISCOS FUENTES                084000000840000008405000
IPA0000004000000003AC                        057065674ARIAS VALENCIA EDMUNDO                                                     084000000840000008405000
AGR000000410000000000000260922183              OS20180930                A        N        2018093000001SNN
TER0000004100000001I0178
IPA0000004100000002AS                        260922183DISCOS FUENTES EDIMUSICA SA                  DISCOS FUENTES                084000000840000008405000
IPA0000004100000003AC                        057065674ARIAS VALENCIA EDMUNDO                                                     084000000840000008405000
AGR000000420000000000000260922183              OS20180930                A        N        2018093000001SNN
TER0000004200000001I0180
IPA0000004200000002AS                        260922183DISCOS FUENTES EDIMUSICA SA                  DISCOS FUENTES                084000000840000008405000
IPA0000004200000003AC                        057065674ARIAS VALENCIA EDMUNDO                                                     084000000840000008405000
AGR000000430000000000000260922183              OS20180930                A        N        2018093000001SNN
TER0000004300000001I0180
IPA0000004300000002AS                        260922183DISCOS FUENTES EDIMUSICA SA                  DISCOS FUENTES                084000000840000008405000
IPA0000004300000003AC                        057065674ARIAS VALENCIA EDMUNDO                                                     084000000840000008405000
AGR000000440000000000000260922183              OS20180930                A        N        2018093000001SNN
TER0000004400000001I0188
IPA0000004400000002AS                        260922183DISCOS FUENTES EDIMUSICA SA                  DISCOS FUENTES                084000000840000008405000
IPA0000004400000003AC                        057065674ARIAS VALENCIA EDMUNDO                                                     084000000840000008405000
AGR000000450000000000000260922183              OS20180930                A        N        2018093000001SNN
TER0000004500000001I0191
IPA0000004500000002AS                        260922183DISCOS FUENTES EDIMUSICA SA                  DISCOS FUENTES                084000000840000008405000
IPA0000004500000003AC                        057065674ARIAS VALENCIA EDMUNDO                                                     084000000840000008405000
AGR000000460000000000000260922183              OS20180930                A        N        2018093000001SNN
TER0000004600000001I0192
IPA0000004600000002AS                        260922183DISCOS FUENTES EDIMUSICA SA                  DISCOS FUENTES                084000000840000008405000
IPA0000004600000003AC                        057065674ARIAS VALENCIA EDMUNDO                                                     084000000840000008405000
AGR000000470000000000000260922183              OS20180930                A        N        2018093000001SNN
TER0000004700000001I0196
IPA0000004700000002AS                        260922183DISCOS FUENTES EDIMUSICA SA                  DISCOS FUENTES                084000000840000008405000
IPA0000004700000003AC                        057065674ARIAS VALENCIA EDMUNDO                                                     084000000840000008405000
AGR000000480000000000000260922183              OS20180930                A        N        2018093000001SNN
TER0000004800000001I0200
IPA0000004800000002AS                        260922183DISCOS FUENTES EDIMUSICA SA                  DISCOS FUENTES                084000000840000008405000
IPA0000004800000003AC                        057065674ARIAS VALENCIA EDMUNDO                                                     084000000840000008405000
AGR000000490000000000000260922183              OS20180930                A        N        2018093000001SNN
TER0000004900000001I0203
IPA0000004900000002AS                        260922183DISCOS FUENTES EDIMUSICA SA                  DISCOS FUENTES                084000000840000008405000
IPA0000004900000003AC                        057065674ARIAS VALENCIA EDMUNDO                                                     084000000840000008405000
AGR000000500000000000000260922183              OS20180930                A        N        2018093000001SNN
TER0000005000000001I0204
IPA0000005000000002AS                        260922183DISCOS FUENTES EDIMUSICA SA                  DISCOS FUENTES                084000000840000008405000
IPA0000005000000003AC                        057065674ARIAS VALENCIA EDMUNDO                                                     084000000840000008405000
AGR000000510000000000000260922183              OS20180930                A        N        2018093000001SNN
TER0000005100000001I0208
IPA0000005100000002AS                        260922183DISCOS FUENTES EDIMUSICA SA                  DISCOS FUENTES                084000000840000008405000
IPA0000005100000003AC                        057065674ARIAS VALENCIA EDMUNDO                                                     084000000840000008405000
AGR000000520000000000000260922183              OS20180930                A        N        2018093000001SNN
TER0000005200000001I0212
IPA0000005200000002AS                        260922183DISCOS FUENTES EDIMUSICA SA                  DISCOS FUENTES                084000000840000008405000
IPA0000005200000003AC                        057065674ARIAS VALENCIA EDMUNDO                                                     084000000840000008405000
AGR000000530000000000000260922183              OS20180930                A        N        2018093000001SNN
TER0000005300000001I0214
IPA0000005300000002AS                        260922183DISCOS FUENTES EDIMUSICA SA                  DISCOS FUENTES                084000000840000008405000
IPA0000005300000003AC                        057065674ARIAS VALENCIA EDMUNDO                                                     084000000840000008405000
AGR000000540000000000000260922183              OS20180930                A        N        2018093000001SNN
TER0000005400000001I0218
IPA0000005400000002AS                        260922183DISCOS FUENTES EDIMUSICA SA                  DISCOS FUENTES                084000000840000008405000
IPA0000005400000003AC                        057065674ARIAS VALENCIA EDMUNDO                                                     084000000840000008405000
AGR000000550000000000000260922183              OS20180930                A        N        2018093000001SNN
TER0000005500000001I0222
IPA0000005500000002AS                        260922183DISCOS FUENTES EDIMUSICA SA                  DISCOS FUENTES                084000000840000008405000
IPA0000005500000003AC                        057065674ARIAS VALENCIA EDMUNDO                                                     084000000840000008405000
AGR000000560000000000000260922183              OS20180930                A        N        2018093000001SNN
TER0000005600000001I0226
IPA0000005600000002AS                        260922183DISCOS FUENTES EDIMUSICA SA                  DISCOS FUENTES                084000000840000008405000
IPA0000005600000003AC                        057065674ARIAS VALENCIA EDMUNDO                                                     084000000840000008405000
AGR000000570000000000000260922183              OS20180930                A        N        2018093000001SNN
TER0000005700000001I0230
IPA0000005700000002AS                        260922183DISCOS FUENTES EDIMUSICA SA                  DISCOS FUENTES                084000000840000008405000
IPA0000005700000003AC                        057065674ARIAS VALENCIA EDMUNDO                                                     084000000840000008405000
AGR000000580000000000000260922183              OS20180930                A        N        2018093000001SNN
TER0000005800000001I0231
IPA0000005800000002AS                        260922183DISCOS FUENTES EDIMUSICA SA                  DISCOS FUENTES                084000000840000008405000
IPA0000005800000003AC                        057065674ARIAS VALENCIA EDMUNDO                                                     084000000840000008405000
AGR000000590000000000000260922183              OS20180930                A        N        2018093000001SNN
TER0000005900000001I0232
IPA0000005900000002AS                        260922183DISCOS FUENTES EDIMUSICA SA                  DISCOS FUENTES                084000000840000008405000
IPA0000005900000003AC                        057065674ARIAS VALENCIA EDMUNDO                                                     084000000840000008405000
AGR000000600000000000000260922183              OS20180930                A        N        2018093000001SNN
TER0000006000000001I0233
IPA0000006000000002AS                        260922183DISCOS FUENTES EDIMUSICA SA                  DISCOS FUENTES                084000000840000008405000
IPA0000006000000003AC                        057065674ARIAS VALENCIA EDMUNDO                                                     084000000840000008405000
AGR000000610000000000000260922183              OS20180930                A        N        2018093000001SNN
TER0000006100000001I0242
IPA0000006100000002AS                        260922183DISCOS FUENTES EDIMUSICA SA                  DISCOS FUENTES                084000000840000008405000
IPA0000006100000003AC                        057065674ARIAS VALENCIA EDMUNDO                                                     084000000840000008405000
AGR000000620000000000000260922183              OS20180930                A        N        2018093000001SNN
TER0000006200000001I0246
IPA0000006200000002AS                        260922183DISCOS FUENTES EDIMUSICA SA                  DISCOS FUENTES                084000000840000008405000
IPA0000006200000003AC                        057065674ARIAS VALENCIA EDMUNDO                                                     084000000840000008405000
AGR000000630000000000000260922183              OS20180930                A        N        2018093000001SNN
TER0000006300000001I0250
IPA0000006300000002AS                        260922183DISCOS FUENTES EDIMUSICA SA                  DISCOS FUENTES                084000000840000008405000
IPA0000006300000003AC                        057065674ARIAS VALENCIA EDMUNDO                                                     084000000840000008405000
AGR000000640000000000000260922183              OS20180930                A        N        2018093000001SNN
TER0000006400000001I0258
IPA0000006400000002AS                        260922183DISCOS FUENTES EDIMUSICA SA                  DISCOS FUENTES                084000000840000008405000
IPA0000006400000003AC                        057065674ARIAS VALENCIA EDMUNDO                                                     084000000840000008405000
AGR000000650000000000000260922183              OS20180930                A        N        2018093000001SNN
TER0000006500000001I0262
IPA0000006500000002AS                        260922183DISCOS FUENTES EDIMUSICA SA                  DISCOS FUENTES                084000000840000008405000
IPA0000006500000003AC                        057065674ARIAS VALENCIA EDMUNDO                                                     084000000840000008405000
AGR000000660000000000000260922183              OS20180930                A        N        2018093000001SNN
TER0000006600000001I0266
IPA0000006600000002AS                        260922183DISCOS FUENTES EDIMUSICA SA                  DISCOS FUENTES                084000000840000008405000
IPA0000006600000003AC                        057065674ARIAS VALENCIA EDMUNDO                                                     084000000840000008405000
AGR000000670000000000000260922183              OS20180930                A        N        2018093000001SNN
TER0000006700000001I0268
IPA0000006700000002AS                        260922183DISCOS FUENTES EDIMUSICA SA                  DISCOS FUENTES                084000000840000008405000
IPA0000006700000003AC                        057065674ARIAS VALENCIA EDMUNDO                                                     084000000840000008405000
AGR000000680000000000000260922183              OS20180930                A        N        2018093000001SNN
TER0000006800000001I0270
IPA0000006800000002AS                        260922183DISCOS FUENTES EDIMUSICA SA                  DISCOS FUENTES                084000000840000008405000
IPA0000006800000003AC                        057065674ARIAS VALENCIA EDMUNDO                                                     084000000840000008405000
AGR000000690000000000000260922183              OS20180930                A        N        2018093000001SNN
TER0000006900000001I0276
IPA0000006900000002AS                        260922183DISCOS FUENTES EDIMUSICA SA                  DISCOS FUENTES                084000000840000008405000
IPA0000006900000003AC                        057065674ARIAS VALENCIA EDMUNDO                                                     084000000840000008405000
AGR000000700000000000000260922183              OS20180930                A        N        2018093000001SNN
TER0000007000000001I0278
IPA0000007000000002AS                        260922183DISCOS FUENTES EDIMUSICA SA                  DISCOS FUENTES                084000000840000008405000
IPA0000007000000003AC                        057065674ARIAS VALENCIA EDMUNDO                                                     084000000840000008405000
AGR000000710000000000000260922183              OS20180930                A        N        2018093000001SNN
TER0000007100000001I0280
IPA0000007100000002AS                        260922183DISCOS FUENTES EDIMUSICA SA                  DISCOS FUENTES                084000000840000008405000
IPA0000007100000003AC                        057065674ARIAS VALENCIA EDMUNDO                                                     084000000840000008405000
AGR000000720000000000000260922183              OS20180930                A        N        2018093000001SNN
TER0000007200000001I0288
IPA0000007200000002AS                        260922183DISCOS FUENTES EDIMUSICA SA                  DISCOS FUENTES                084000000840000008405000
IPA0000007200000003AC                        057065674ARIAS VALENCIA EDMUNDO                                                     084000000840000008405000
AGR000000730000000000000260922183              OS20180930                A        N        2018093000001SNN
TER0000007300000001I0296
IPA0000007300000002AS                        260922183DISCOS FUENTES EDIMUSICA SA                  DISCOS FUENTES                084000000840000008405000
IPA0000007300000003AC                        057065674ARIAS VALENCIA EDMUNDO                                                     084000000840000008405000
AGR000000740000000000000260922183              OS20180930                A        N        2018093000001SNN
TER0000007400000001I0300
IPA0000007400000002AS                        260922183DISCOS FUENTES EDIMUSICA SA                  DISCOS FUENTES                084000000840000008405000
IPA0000007400000003AC                        057065674ARIAS VALENCIA EDMUNDO                                                     084000000840000008405000
AGR000000750000000000000260922183              OS20180930                A        N        2018093000001SNN
TER0000007500000001I0308
IPA0000007500000002AS                        260922183DISCOS FUENTES EDIMUSICA SA                  DISCOS FUENTES                084000000840000008405000
IPA0000007500000003AC                        057065674ARIAS VALENCIA EDMUNDO                                                     084000000840000008405000
AGR000000760000000000000260922183              OS20180930                A        N        2018093000001SNN
TER0000007600000001I0320
IPA0000007600000002AS                        260922183DISCOS FUENTES EDIMUSICA SA                  DISCOS FUENTES                084000000840000008405000
IPA0000007600000003AC                        057065674ARIAS VALENCIA EDMUNDO                                                     084000000840000008405000
AGR000000770000000000000260922183              OS20180930                A        N        2018093000001SNN
TER0000007700000001I0324
IPA0000007700000002AS                        260922183DISCOS FUENTES EDIMUSICA SA                  DISCOS FUENTES                084000000840000008405000
IPA0000007700000003AC                        057065674ARIAS VALENCIA EDMUNDO                                                     084000000840000008405000
AGR000000780000000000000260922183              OS20180930                A        N        2018093000001SNN
TER0000007800000001I0328
IPA0000007800000002AS                        260922183DISCOS FUENTES EDIMUSICA SA                  DISCOS FUENTES                084000000840000008405000
IPA0000007800000003AC                        057065674ARIAS VALENCIA EDMUNDO                                                     084000000840000008405000
AGR000000790000000000000260922183              OS20180930                A        N        2018093000001SNN
TER0000007900000001I0332
IPA0000007900000002AS                        260922183DISCOS FUENTES EDIMUSICA SA                  DISCOS FUENTES                084000000840000008405000
IPA0000007900000003AC                        057065674ARIAS VALENCIA EDMUNDO                                                     084000000840000008405000
AGR000000800000000000000260922183              OS20180930                A        N        2018093000001SNN
TER0000008000000001I0336
IPA0000008000000002AS                        260922183DISCOS FUENTES EDIMUSICA SA                  DISCOS FUENTES                084000000840000008405000
IPA0000008000000003AC                        057065674ARIAS VALENCIA EDMUNDO                                                     084000000840000008405000
AGR000000810000000000000260922183              OS20180930                A        N        2018093000001SNN
TER0000008100000001I0340
IPA0000008100000002AS                        260922183DISCOS FUENTES EDIMUSICA SA                  DISCOS FUENTES                084000000840000008405000
IPA0000008100000003AC                        057065674ARIAS VALENCIA EDMUNDO                                                     084000000840000008405000
AGR000000820000000000000260922183              OS20180930                A        N        2018093000001SNN
TER0000008200000001I0344
IPA0000008200000002AS                        260922183DISCOS FUENTES EDIMUSICA SA                  DISCOS FUENTES                084000000840000008405000
IPA0000008200000003AC                        057065674ARIAS VALENCIA EDMUNDO                                                     084000000840000008405000
AGR000000830000000000000260922183              OS20180930                A        N        2018093000001SNN
TER0000008300000001I0348
IPA0000008300000002AS                        260922183DISCOS FUENTES EDIMUSICA SA                  DISCOS FUENTES                084000000840000008405000
IPA0000008300000003AC                        057065674ARIAS VALENCIA EDMUNDO                                                     084000000840000008405000
AGR000000840000000000000260922183              OS20180930                A        N        2018093000001SNN
TER0000008400000001I0352
IPA0000008400000002AS                        260922183DISCOS FUENTES EDIMUSICA SA                  DISCOS FUENTES                084000000840000008405000
IPA0000008400000003AC                        057065674ARIAS VALENCIA EDMUNDO                                                     084000000840000008405000
AGR000000850000000000000260922183              OS20180930                A        N        2018093000001SNN
TER0000008500000001I0356
IPA0000008500000002AS                        260922183DISCOS FUENTES EDIMUSICA SA                  DISCOS FUENTES                084000000840000008405000
IPA0000008500000003AC                        057065674ARIAS VALENCIA EDMUNDO                                                     084000000840000008405000
AGR000000860000000000000260922183              OS20180930                A        N        2018093000001SNN
TER0000008600000001I0360
IPA0000008600000002AS                        260922183DISCOS FUENTES EDIMUSICA SA                  DISCOS FUENTES                084000000840000008405000
IPA0000008600000003AC                        057065674ARIAS VALENCIA EDMUNDO                                                     084000000840000008405000
AGR000000870000000000000260922183              OS20180930                A        N        2018093000001SNN
TER0000008700000001I0364
IPA0000008700000002AS                        260922183DISCOS FUENTES EDIMUSICA SA                  DISCOS FUENTES                084000000840000008405000
IPA0000008700000003AC                        057065674ARIAS VALENCIA EDMUNDO                                                     084000000840000008405000
AGR000000880000000000000260922183              OS20180930                A        N        2018093000001SNN
TER0000008800000001I0368
IPA0000008800000002AS                        260922183DISCOS FUENTES EDIMUSICA SA                  DISCOS FUENTES                084000000840000008405000
IPA0000008800000003AC                        057065674ARIAS VALENCIA EDMUNDO                                                     084000000840000008405000
AGR000000890000000000000260922183              OS20180930                A        N        2018093000001SNN
TER0000008900000001I0372
IPA0000008900000002AS                        260922183DISCOS FUENTES EDIMUSICA SA                  DISCOS FUENTES                084000000840000008405000
IPA0000008900000003AC                        057065674ARIAS VALENCIA EDMUNDO                                                     084000000840000008405000
AGR000000900000000000000260922183              OS20180930                A        N        2018093000001SNN
TER0000009000000001I0376
IPA0000009000000002AS                        260922183DISCOS FUENTES EDIMUSICA SA                  DISCOS FUENTES                084000000840000008405000
IPA0000009000000003AC                        057065674ARIAS VALENCIA EDMUNDO                                                     084000000840000008405000
AGR000000910000000000000260922183              OS20180930                A        N        2018093000001SNN
TER0000009100000001I0380
IPA0000009100000002AS                        260922183DISCOS FUENTES EDIMUSICA SA                  DISCOS FUENTES                084000000840000008405000
IPA0000009100000003AC                        057065674ARIAS VALENCIA EDMUNDO                                                     084000000840000008405000
AGR000000920000000000000260922183              OS20180930                A        N        2018093000001SNN
TER0000009200000001I0384
IPA0000009200000002AS                        260922183DISCOS FUENTES EDIMUSICA SA                  DISCOS FUENTES                084000000840000008405000
IPA0000009200000003AC                        057065674ARIAS VALENCIA EDMUNDO                                                     084000000840000008405000
AGR000000930000000000000260922183              OS20180930                A        N        2018093000001SNN
TER0000009300000001I0388
IPA0000009300000002AS                        260922183DISCOS FUENTES EDIMUSICA SA                  DISCOS FUENTES                084000000840000008405000
IPA0000009300000003AC                        057065674ARIAS VALENCIA EDMUNDO                                                     084000000840000008405000
AGR000000940000000000000260922183              OS20180930                A        N        2018093000001SNN
TER0000009400000001I0392
IPA0000009400000002AS                        260922183DISCOS FUENTES EDIMUSICA SA                  DISCOS FUENTES                084000000840000008405000
IPA0000009400000003AC                        057065674ARIAS VALENCIA EDMUNDO                                                     084000000840000008405000
AGR000000950000000000000260922183              OS20180930                A        N        2018093000001SNN
TER0000009500000001I0398
IPA0000009500000002AS                        260922183DISCOS FUENTES EDIMUSICA SA                  DISCOS FUENTES                084000000840000008405000
IPA0000009500000003AC                        057065674ARIAS VALENCIA EDMUNDO                                                     084000000840000008405000
AGR000000960000000000000260922183              OS20180930                A        N        2018093000001SNN
TER0000009600000001I0400
IPA0000009600000002AS                        260922183DISCOS FUENTES EDIMUSICA SA                  DISCOS FUENTES                084000000840000008405000
IPA0000009600000003AC                        057065674ARIAS VALENCIA EDMUNDO                                                     084000000840000008405000
AGR000000970000000000000260922183              OS20180930                A        N        2018093000001SNN
TER0000009700000001I0404
IPA0000009700000002AS                        260922183DISCOS FUENTES EDIMUSICA SA                  DISCOS FUENTES                084000000840000008405000
IPA0000009700000003AC                        057065674ARIAS VALENCIA EDMUNDO                                                     084000000840000008405000
AGR000000980000000000000260922183              OS20180930                A        N        2018093000001SNN
TER0000009800000001I0408
IPA0000009800000002AS                        260922183DISCOS FUENTES EDIMUSICA SA                  DISCOS FUENTES                084000000840000008405000
IPA0000009800000003AC                        057065674ARIAS VALENCIA EDMUNDO                                                     084000000840000008405000
AGR000000990000000000000260922183              OS20180930                A        N        2018093000001SNN
TER0000009900000001I0410
IPA0000009900000002AS                        260922183DISCOS FUENTES EDIMUSICA SA                  DISCOS FUENTES                084000000840000008405000
IPA0000009900000003AC                        057065674ARIAS VALENCIA EDMUNDO                                                     084000000840000008405000
AGR000001000000000000000260922183              OS20180930                A        N        2018093000001SNN
TER0000010000000001I0414
IPA0000010000000002AS                        260922183DISCOS FUENTES EDIMUSICA SA                  DISCOS FUENTES                084000000840000008405000
IPA0000010000000003AC                        057065674ARIAS VALENCIA EDMUNDO                                                     084000000840000008405000
AGR000001010000000000000260922183              OS20180930                A        N        2018093000001SNN
TER0000010100000001I0417
IPA0000010100000002AS                        260922183DISCOS FUENTES EDIMUSICA SA                  DISCOS FUENTES                084000000840000008405000
IPA0000010100000003AC                        057065674ARIAS VALENCIA EDMUNDO                                                     084000000840000008405000
AGR000001020000000000000260922183              OS20180930                A        N        2018093000001SNN
TER0000010200000001I0418
IPA0000010200000002AS                        260922183DISCOS FUENTES EDIMUSICA SA                  DISCOS FUENTES                084000000840000008405000
IPA0000010200000003AC                        057065674ARIAS VALENCIA EDMUNDO                                                     084000000840000008405000
AGR000001030000000000000260922183              OS20180930                A        N        2018093000001SNN
TER0000010300000001I0422
IPA0000010300000002AS                        260922183DISCOS FUENTES EDIMUSICA SA                  DISCOS FUENTES                084000000840000008405000
IPA0000010300000003AC                        057065674ARIAS VALENCIA EDMUNDO                                                     084000000840000008405000
AGR000001040000000000000260922183              OS20180930                A        N        2018093000001SNN
TER0000010400000001I0426
IPA0000010400000002AS                        260922183DISCOS FUENTES EDIMUSICA SA                  DISCOS FUENTES                084000000840000008405000
IPA0000010400000003AC                        057065674ARIAS VALENCIA EDMUNDO                                                     084000000840000008405000
AGR000001050000000000000260922183              OS20180930                A        N        2018093000001SNN
TER0000010500000001I0428
IPA0000010500000002AS                        260922183DISCOS FUENTES EDIMUSICA SA                  DISCOS FUENTES                084000000840000008405000
IPA0000010500000003AC                        057065674ARIAS VALENCIA EDMUNDO                                                     084000000840000008405000
AGR000001060000000000000260922183              OS20180930                A        N        2018093000001SNN
TER0000010600000001I0430
IPA0000010600000002AS                        260922183DISCOS FUENTES EDIMUSICA SA                  DISCOS FUENTES                084000000840000008405000
IPA0000010600000003AC                        057065674ARIAS VALENCIA EDMUNDO                                                     084000000840000008405000
AGR000001070000000000000260922183              OS20180930                A        N        2018093000001SNN
TER0000010700000001I0434
IPA0000010700000002AS                        260922183DISCOS FUENTES EDIMUSICA SA                  DISCOS FUENTES                084000000840000008405000
IPA0000010700000003AC                        057065674ARIAS VALENCIA EDMUNDO                                                     084000000840000008405000
AGR000001080000000000000260922183              OS20180930                A        N        2018093000001SNN
TER0000010800000001I0438
IPA0000010800000002AS                        260922183DISCOS FUENTES EDIMUSICA SA                  DISCOS FUENTES                084000000840000008405000
IPA0000010800000003AC                        057065674ARIAS VALENCIA EDMUNDO                                                     084000000840000008405000
AGR000001090000000000000260922183              OS20180930                A        N        2018093000001SNN
TER0000010900000001I0440
IPA0000010900000002AS                        260922183DISCOS FUENTES EDIMUSICA SA                  DISCOS FUENTES                084000000840000008405000
IPA0000010900000003AC                        057065674ARIAS VALENCIA EDMUNDO                                                     084000000840000008405000
AGR000001100000000000000260922183              OS20180930                A        N        2018093000001SNN
TER0000011000000001I0442
IPA0000011000000002AS                        260922183DISCOS FUENTES EDIMUSICA SA                  DISCOS FUENTES                084000000840000008405000
IPA0000011000000003AC                        057065674ARIAS VALENCIA EDMUNDO                                                     084000000840000008405000
AGR000001110000000000000260922183              OS20180930                A        N        2018093000001SNN
TER0000011100000001I0446
IPA0000011100000002AS                        260922183DISCOS FUENTES EDIMUSICA SA                  DISCOS FUENTES                084000000840000008405000
IPA0000011100000003AC                        057065674ARIAS VALENCIA EDMUNDO                                                     084000000840000008405000
AGR000001120000000000000260922183              OS20180930                A        N        2018093000001SNN
TER0000011200000001I0450
IPA0000011200000002AS                        260922183DISCOS FUENTES EDIMUSICA SA                  DISCOS FUENTES                084000000840000008405000
IPA0000011200000003AC                        057065674ARIAS VALENCIA EDMUNDO                                                     084000000840000008405000
AGR000001130000000000000260922183              OS20180930                A        N        2018093000001SNN
TER0000011300000001I0454
IPA0000011300000002AS                        260922183DISCOS FUENTES EDIMUSICA SA                  DISCOS FUENTES                084000000840000008405000
IPA0000011300000003AC                        057065674ARIAS VALENCIA EDMUNDO                                                     084000000840000008405000
AGR000001140000000000000260922183              OS20180930                A        N        2018093000001SNN
TER0000011400000001I0458
IPA0000011400000002AS                        260922183DISCOS FUENTES EDIMUSICA SA                  DISCOS FUENTES                084000000840000008405000
IPA0000011400000003AC                        057065674ARIAS VALENCIA EDMUNDO                                                     084000000840000008405000
AGR000001150000000000000260922183              OS20180930                A        N        2018093000001SNN
TER0000011500000001I0462
IPA0000011500000002AS                        260922183DISCOS FUENTES EDIMUSICA SA                  DISCOS FUENTES                084000000840000008405000
IPA0000011500000003AC                        057065674ARIAS VALENCIA EDMUNDO                                                     084000000840000008405000
AGR000001160000000000000260922183              OS20180930                A        N        2018093000001SNN
TER0000011600000001I0466
IPA0000011600000002AS                        260922183DISCOS FUENTES EDIMUSICA SA                  DISCOS FUENTES                084000000840000008405000
IPA0000011600000003AC                        057065674ARIAS VALENCIA EDMUNDO                                                     084000000840000008405000
AGR000001170000000000000260922183              OS20180930                A        N        2018093000001SNN
TER0000011700000001I0470
IPA0000011700000002AS                        260922183DISCOS FUENTES EDIMUSICA SA                  DISCOS FUENTES                084000000840000008405000
IPA0000011700000003AC                        057065674ARIAS VALENCIA EDMUNDO                                                     084000000840000008405000
AGR000001180000000000000260922183              OS20180930                A        N        2018093000001SNN
TER0000011800000001I0478
IPA0000011800000002AS                        260922183DISCOS FUENTES EDIMUSICA SA                  DISCOS FUENTES                084000000840000008405000
IPA0000011800000003AC                        057065674ARIAS VALENCIA EDMUNDO                                                     084000000840000008405000
AGR000001190000000000000260922183              OS20180930                A        N        2018093000001SNN
TER0000011900000001I0480
IPA0000011900000002AS                        260922183DISCOS FUENTES EDIMUSICA SA                  DISCOS FUENTES                084000000840000008405000
IPA0000011900000003AC                        057065674ARIAS VALENCIA EDMUNDO                                                     084000000840000008405000
AGR000001200000000000000260922183              OS20180930                A        N        2018093000001SNN
TER0000012000000001I0484
IPA0000012000000002AS                        260922183DISCOS FUENTES EDIMUSICA SA                  DISCOS FUENTES                084000000840000008405000
IPA0000012000000003AC                        057065674ARIAS VALENCIA EDMUNDO                                                     084000000840000008405000
AGR000001210000000000000260922183              OS20180930                A        N        2018093000001SNN
TER0000012100000001I0492
IPA0000012100000002AS                        260922183DISCOS FUENTES EDIMUSICA SA                  DISCOS FUENTES                084000000840000008405000
IPA0000012100000003AC                        057065674ARIAS VALENCIA EDMUNDO                                                     084000000840000008405000
AGR000001220000000000000260922183              OS20180930                A        N        2018093000001SNN
TER0000012200000001I0496
IPA0000012200000002AS                        260922183DISCOS FUENTES EDIMUSICA SA                  DISCOS FUENTES                084000000840000008405000
IPA0000012200000003AC                        057065674ARIAS VALENCIA EDMUNDO                                                     084000000840000008405000
AGR000001230000000000000260922183              OS20180930                A        N        2018093000001SNN
TER0000012300000001I0498
IPA0000012300000002AS                        260922183DISCOS FUENTES EDIMUSICA SA                  DISCOS FUENTES                084000000840000008405000
IPA0000012300000003AC                        057065674ARIAS VALENCIA EDMUNDO                                                     084000000840000008405000
AGR000001240000000000000260922183              OS20180930                A        N        2018093000001SNN
TER0000012400000001I0499
IPA0000012400000002AS                        260922183DISCOS FUENTES EDIMUSICA SA                  DISCOS FUENTES                084000000840000008405000
IPA0000012400000003AC                        057065674ARIAS VALENCIA EDMUNDO                                                     084000000840000008405000
AGR000001250000000000000260922183              OS20180930                A        N        2018093000001SNN
TER0000012500000001I0504
IPA0000012500000002AS                        260922183DISCOS FUENTES EDIMUSICA SA                  DISCOS FUENTES                084000000840000008405000
IPA0000012500000003AC                        057065674ARIAS VALENCIA EDMUNDO                                                     084000000840000008405000
AGR000001260000000000000260922183              OS20180930                A        N        2018093000001SNN
TER0000012600000001I0508
